{
  "address": "0xCbb663aE9D45a6044A889DD685D2FeC2B52f769f",
  "abi": [
    {
      "inputs": [],
      "stateMutability": "nonpayable",
      "type": "constructor"
    },
    {
      "inputs": [],
      "name": "getBalance",
      "outputs": [
        {
          "internalType": "uint256",
          "name": "",
          "type": "uint256"
        }
      ],
      "stateMutability": "view",
      "type": "function"
    },
    {
      "inputs": [],
      "name": "getTicket",
      "outputs": [],
      "stateMutability": "nonpayable",
      "type": "function"
    },
    {
      "inputs": [],
      "name": "manager",
      "outputs": [
        {
          "internalType": "address",
          "name": "",
          "type": "address"
        }
      ],
      "stateMutability": "view",
      "type": "function"
    },
    {
      "inputs": [],
      "name": "pickWinner",
      "outputs": [],
      "stateMutability": "nonpayable",
      "type": "function"
    },
    {
      "inputs": [
        {
          "internalType": "uint256",
          "name": "",
          "type": "uint256"
        }
      ],
      "name": "players",
      "outputs": [
        {
          "internalType": "address payable",
          "name": "",
          "type": "address"
        }
      ],
      "stateMutability": "view",
      "type": "function"
    },
    {
      "inputs": [],
      "name": "random",
      "outputs": [
        {
          "internalType": "uint256",
          "name": "",
          "type": "uint256"
        }
      ],
      "stateMutability": "view",
      "type": "function"
    },
    {
      "inputs": [],
      "name": "totalPlayers",
      "outputs": [
        {
          "internalType": "uint256",
          "name": "",
          "type": "uint256"
        }
      ],
      "stateMutability": "view",
      "type": "function"
    },
    {
      "inputs": [
        {
          "internalType": "address",
          "name": "",
          "type": "address"
        }
      ],
      "name": "uniquePlayers",
      "outputs": [
        {
          "internalType": "bool",
          "name": "",
          "type": "bool"
        }
      ],
      "stateMutability": "view",
      "type": "function"
    },
    {
      "inputs": [],
      "name": "winner",
      "outputs": [
        {
          "internalType": "address payable",
          "name": "",
          "type": "address"
        }
      ],
      "stateMutability": "view",
      "type": "function"
    },
    {
      "stateMutability": "payable",
      "type": "receive"
    }
  ],
  "transactionHash": "0xba6a39f78ddb75eb76bbdf320b8f93bfca484600577f7b8a5377566cad3d0aa5",
  "args": [],
  "numDeployments": 1,
  "solcInputHash": "9497360fb0788771b9c57bb1264889a4",
  "bytecode": "0x608060405234801561001057600080fd5b5033600260006101000a81548173ffffffffffffffffffffffffffffffffffffffff021916908373ffffffffffffffffffffffffffffffffffffffff160217905550610a59806100616000396000f3fe60806040526004361061008a5760003560e01c80635ec01e4d116100595780635ec01e4d14610140578063c002c4d61461016b578063dfbf53ae14610182578063f60cdcf6146101ad578063f71d96cb146101d857610091565b806312065fe01461009657806335601688146100c1578063481c6a75146100fe5780635d495aea1461012957610091565b3661009157005b600080fd5b3480156100a257600080fd5b506100ab610215565b6040516100b891906106ea565b60405180910390f35b3480156100cd57600080fd5b506100e860048036038101906100e39190610768565b61021d565b6040516100f591906107b0565b60405180910390f35b34801561010a57600080fd5b5061011361023d565b60405161012091906107da565b60405180910390f35b34801561013557600080fd5b5061013e610263565b005b34801561014c57600080fd5b50610155610430565b60405161016291906106ea565b60405180910390f35b34801561017757600080fd5b5061018061046a565b005b34801561018e57600080fd5b506101976105b9565b6040516101a49190610816565b60405180910390f35b3480156101b957600080fd5b506101c26105df565b6040516101cf91906106ea565b60405180910390f35b3480156101e457600080fd5b506101ff60048036038101906101fa919061085d565b6105eb565b60405161020c9190610816565b60405180910390f35b600047905090565b60016020528060005260406000206000915054906101000a900460ff1681565b600260009054906101000a900473ffffffffffffffffffffffffffffffffffffffff1681565b600260009054906101000a900473ffffffffffffffffffffffffffffffffffffffff1673ffffffffffffffffffffffffffffffffffffffff163373ffffffffffffffffffffffffffffffffffffffff16146102bd57600080fd5b60006102c7610430565b905060008080549050826102db91906108b9565b9050600081815481106102f1576102f06108ea565b5b9060005260206000200160009054906101000a900473ffffffffffffffffffffffffffffffffffffffff16600360006101000a81548173ffffffffffffffffffffffffffffffffffffffff021916908373ffffffffffffffffffffffffffffffffffffffff160217905550600360009054906101000a900473ffffffffffffffffffffffffffffffffffffffff1673ffffffffffffffffffffffffffffffffffffffff166108fc6103a0610215565b9081150290604051600060405180830381858888f193505050501580156103cb573d6000803e3d6000fd5b50600067ffffffffffffffff8111156103e7576103e6610919565b5b6040519080825280602002602001820160405280156104155781602001602082028036833780820191505090505b506000908051906020019061042b92919061062a565b505050565b6000444260008054905060405160200161044c93929190610969565b6040516020818303038152906040528051906020012060001c905090565b60001515600160003373ffffffffffffffffffffffffffffffffffffffff1673ffffffffffffffffffffffffffffffffffffffff16815260200190815260200160002060009054906101000a900460ff161515146104fd576040517f08c379a00000000000000000000000000000000000000000000000000000000081526004016104f490610a03565b60405180910390fd5b6000339080600181540180825580915050600190039060005260206000200160009091909190916101000a81548173ffffffffffffffffffffffffffffffffffffffff021916908373ffffffffffffffffffffffffffffffffffffffff16021790555060018060003373ffffffffffffffffffffffffffffffffffffffff1673ffffffffffffffffffffffffffffffffffffffff16815260200190815260200160002060006101000a81548160ff021916908315150217905550565b600360009054906101000a900473ffffffffffffffffffffffffffffffffffffffff1681565b60008080549050905090565b600081815481106105fb57600080fd5b906000526020600020016000915054906101000a900473ffffffffffffffffffffffffffffffffffffffff1681565b8280548282559060005260206000209081019282156106a3579160200282015b828111156106a25782518260006101000a81548173ffffffffffffffffffffffffffffffffffffffff021916908373ffffffffffffffffffffffffffffffffffffffff1602179055509160200191906001019061064a565b5b5090506106b091906106b4565b5090565b5b808211156106cd5760008160009055506001016106b5565b5090565b6000819050919050565b6106e4816106d1565b82525050565b60006020820190506106ff60008301846106db565b92915050565b600080fd5b600073ffffffffffffffffffffffffffffffffffffffff82169050919050565b60006107358261070a565b9050919050565b6107458161072a565b811461075057600080fd5b50565b6000813590506107628161073c565b92915050565b60006020828403121561077e5761077d610705565b5b600061078c84828501610753565b91505092915050565b60008115159050919050565b6107aa81610795565b82525050565b60006020820190506107c560008301846107a1565b92915050565b6107d48161072a565b82525050565b60006020820190506107ef60008301846107cb565b92915050565b60006108008261070a565b9050919050565b610810816107f5565b82525050565b600060208201905061082b6000830184610807565b92915050565b61083a816106d1565b811461084557600080fd5b50565b60008135905061085781610831565b92915050565b60006020828403121561087357610872610705565b5b600061088184828501610848565b91505092915050565b7f4e487b7100000000000000000000000000000000000000000000000000000000600052601260045260246000fd5b60006108c4826106d1565b91506108cf836106d1565b9250826108df576108de61088a565b5b828206905092915050565b7f4e487b7100000000000000000000000000000000000000000000000000000000600052603260045260246000fd5b7f4e487b7100000000000000000000000000000000000000000000000000000000600052604160045260246000fd5b6000819050919050565b61096361095e826106d1565b610948565b82525050565b60006109758286610952565b6020820191506109858285610952565b6020820191506109958284610952565b602082019150819050949350505050565b600082825260208201905092915050565b7f596f7520616c726561647920686176652061207469636b657400000000000000600082015250565b60006109ed6019836109a6565b91506109f8826109b7565b602082019050919050565b60006020820190508181036000830152610a1c816109e0565b905091905056fea26469706673582212203d40d995b9fe1cafbcb6f2f2a6dce1d996cc06a3cfe792d5eea74d7a7db1aafb64736f6c63430008120033",
  "devdoc": {
    "kind": "dev",
    "methods": {},
    "version": 1
  },
  "userdoc": {
    "kind": "user",
    "methods": {},
    "version": 1
  },
  "storageLayout": {
    "storage": [
      {
        "astId": 4,
        "contract": "contracts/Lottery.sol:Lottery",
        "label": "players",
        "offset": 0,
        "slot": "0",
        "type": "t_array(t_address_payable)dyn_storage"
      },
      {
        "astId": 8,
        "contract": "contracts/Lottery.sol:Lottery",
        "label": "uniquePlayers",
        "offset": 0,
        "slot": "1",
        "type": "t_mapping(t_address,t_bool)"
      },
      {
        "astId": 10,
        "contract": "contracts/Lottery.sol:Lottery",
        "label": "manager",
        "offset": 0,
        "slot": "2",
        "type": "t_address"
      },
      {
        "astId": 12,
        "contract": "contracts/Lottery.sol:Lottery",
        "label": "winner",
        "offset": 0,
        "slot": "3",
        "type": "t_address_payable"
      }
    ],
    "types": {
      "t_address": {
        "encoding": "inplace",
        "label": "address",
        "numberOfBytes": "20"
      },
      "t_address_payable": {
        "encoding": "inplace",
        "label": "address payable",
        "numberOfBytes": "20"
      },
      "t_array(t_address_payable)dyn_storage": {
        "base": "t_address_payable",
        "encoding": "dynamic_array",
        "label": "address payable[]",
        "numberOfBytes": "32"
      },
      "t_bool": {
        "encoding": "inplace",
        "label": "bool",
        "numberOfBytes": "1"
      },
      "t_mapping(t_address,t_bool)": {
        "encoding": "mapping",
        "key": "t_address",
        "label": "mapping(address => bool)",
        "numberOfBytes": "32",
        "value": "t_bool"
      }
    }
  }
}