{
  "address": "0xCC56f8D7eEF9B232d38145A04016A81BE09C37B1",
  "abi": [
    {
      "inputs": [
        {
          "internalType": "address",
          "name": "gatewayTokenContract",
          "type": "address"
        },
        {
          "internalType": "uint256",
          "name": "gatekeeperNetwork",
          "type": "uint256"
        }
      ],
      "stateMutability": "nonpayable",
      "type": "constructor"
    },
    {
      "inputs": [
        {
          "internalType": "address",
          "name": "gatewayToken",
          "type": "address"
        }
      ],
      "name": "IsGated__InvalidGatewayToken",
      "type": "error"
    },
    {
      "inputs": [],
      "name": "getBalance",
      "outputs": [
        {
          "internalType": "uint256",
          "name": "",
          "type": "uint256"
        }
      ],
      "stateMutability": "view",
      "type": "function"
    },
    {
      "inputs": [],
      "name": "getTicket",
      "outputs": [],
      "stateMutability": "nonpayable",
      "type": "function"
    },
    {
      "inputs": [],
      "name": "manager",
      "outputs": [
        {
          "internalType": "address",
          "name": "",
          "type": "address"
        }
      ],
      "stateMutability": "view",
      "type": "function"
    },
    {
      "inputs": [],
      "name": "pickWinner",
      "outputs": [],
      "stateMutability": "nonpayable",
      "type": "function"
    },
    {
      "inputs": [
        {
          "internalType": "uint256",
          "name": "",
          "type": "uint256"
        }
      ],
      "name": "players",
      "outputs": [
        {
          "internalType": "address payable",
          "name": "",
          "type": "address"
        }
      ],
      "stateMutability": "view",
      "type": "function"
    },
    {
      "inputs": [],
      "name": "random",
      "outputs": [
        {
          "internalType": "uint256",
          "name": "",
          "type": "uint256"
        }
      ],
      "stateMutability": "view",
      "type": "function"
    },
    {
      "inputs": [],
      "name": "totalPlayers",
      "outputs": [
        {
          "internalType": "uint256",
          "name": "",
          "type": "uint256"
        }
      ],
      "stateMutability": "view",
      "type": "function"
    },
    {
      "inputs": [
        {
          "internalType": "address",
          "name": "",
          "type": "address"
        }
      ],
      "name": "uniquePlayers",
      "outputs": [
        {
          "internalType": "bool",
          "name": "",
          "type": "bool"
        }
      ],
      "stateMutability": "view",
      "type": "function"
    },
    {
      "inputs": [],
      "name": "winner",
      "outputs": [
        {
          "internalType": "address payable",
          "name": "",
          "type": "address"
        }
      ],
      "stateMutability": "view",
      "type": "function"
    },
    {
      "stateMutability": "payable",
      "type": "receive"
    }
  ],
  "transactionHash": "0x818b0c6dd335a025a3a04d16522e6df1713a019e88e10d9edd35ec8f8c3def05",
  "args": [
    "0xF65b6396dF6B7e2D8a6270E3AB6c7BB08BAEF22E",
    10
  ],
  "numDeployments": 2,
  "solcInputHash": "886c9e91c10c10b50273f8c8e1136c69",
  "bytecode": "0x60806040523480156200001157600080fd5b5060405162000dab38038062000dab833981810160405281019062000037919062000170565b8181816000806101000a81548173ffffffffffffffffffffffffffffffffffffffff021916908373ffffffffffffffffffffffffffffffffffffffff16021790555080600181905550505033600460006101000a81548173ffffffffffffffffffffffffffffffffffffffff021916908373ffffffffffffffffffffffffffffffffffffffff1602179055505050620001b7565b600080fd5b600073ffffffffffffffffffffffffffffffffffffffff82169050919050565b6000620000fd82620000d0565b9050919050565b6200010f81620000f0565b81146200011b57600080fd5b50565b6000815190506200012f8162000104565b92915050565b6000819050919050565b6200014a8162000135565b81146200015657600080fd5b50565b6000815190506200016a816200013f565b92915050565b600080604083850312156200018a5762000189620000cb565b5b60006200019a858286016200011e565b9250506020620001ad8582860162000159565b9150509250929050565b610be480620001c76000396000f3fe60806040526004361061008a5760003560e01c80635ec01e4d116100595780635ec01e4d14610140578063c002c4d61461016b578063dfbf53ae14610182578063f60cdcf6146101ad578063f71d96cb146101d857610091565b806312065fe01461009657806335601688146100c1578063481c6a75146100fe5780635d495aea1461012957610091565b3661009157005b600080fd5b3480156100a257600080fd5b506100ab610215565b6040516100b891906107f3565b60405180910390f35b3480156100cd57600080fd5b506100e860048036038101906100e39190610871565b61021d565b6040516100f591906108b9565b60405180910390f35b34801561010a57600080fd5b5061011361023d565b60405161012091906108e3565b60405180910390f35b34801561013557600080fd5b5061013e610263565b005b34801561014c57600080fd5b50610155610431565b60405161016291906107f3565b60405180910390f35b34801561017757600080fd5b5061018061046b565b005b34801561018e57600080fd5b506101976106c1565b6040516101a4919061091f565b60405180910390f35b3480156101b957600080fd5b506101c26106e7565b6040516101cf91906107f3565b60405180910390f35b3480156101e457600080fd5b506101ff60048036038101906101fa9190610966565b6106f4565b60405161020c919061091f565b60405180910390f35b600047905090565b60036020528060005260406000206000915054906101000a900460ff1681565b600460009054906101000a900473ffffffffffffffffffffffffffffffffffffffff1681565b600460009054906101000a900473ffffffffffffffffffffffffffffffffffffffff1673ffffffffffffffffffffffffffffffffffffffff163373ffffffffffffffffffffffffffffffffffffffff16146102bd57600080fd5b60006102c7610431565b90506000600280549050826102dc91906109c2565b9050600281815481106102f2576102f16109f3565b5b9060005260206000200160009054906101000a900473ffffffffffffffffffffffffffffffffffffffff16600560006101000a81548173ffffffffffffffffffffffffffffffffffffffff021916908373ffffffffffffffffffffffffffffffffffffffff160217905550600560009054906101000a900473ffffffffffffffffffffffffffffffffffffffff1673ffffffffffffffffffffffffffffffffffffffff166108fc6103a1610215565b9081150290604051600060405180830381858888f193505050501580156103cc573d6000803e3d6000fd5b50600067ffffffffffffffff8111156103e8576103e7610a22565b5b6040519080825280602002602001820160405280156104165781602001602082028036833780820191505090505b506002908051906020019061042c929190610733565b505050565b6000444260028054905060405160200161044d93929190610a72565b6040516020818303038152906040528051906020012060001c905090565b60008060009054906101000a900473ffffffffffffffffffffffffffffffffffffffff1690508073ffffffffffffffffffffffffffffffffffffffff1663ff17e232336001546040518363ffffffff1660e01b81526004016104ce929190610aaf565b602060405180830381865afa1580156104eb573d6000803e3d6000fd5b505050506040513d601f19601f8201168201806040525081019061050f9190610b04565b6105705760008054906101000a900473ffffffffffffffffffffffffffffffffffffffff166040517fabd937f600000000000000000000000000000000000000000000000000000000815260040161056791906108e3565b60405180910390fd5b60001515600360003373ffffffffffffffffffffffffffffffffffffffff1673ffffffffffffffffffffffffffffffffffffffff16815260200190815260200160002060009054906101000a900460ff16151514610603576040517f08c379a00000000000000000000000000000000000000000000000000000000081526004016105fa90610b8e565b60405180910390fd5b6002339080600181540180825580915050600190039060005260206000200160009091909190916101000a81548173ffffffffffffffffffffffffffffffffffffffff021916908373ffffffffffffffffffffffffffffffffffffffff1602179055506001600360003373ffffffffffffffffffffffffffffffffffffffff1673ffffffffffffffffffffffffffffffffffffffff16815260200190815260200160002060006101000a81548160ff02191690831515021790555050565b600560009054906101000a900473ffffffffffffffffffffffffffffffffffffffff1681565b6000600280549050905090565b6002818154811061070457600080fd5b906000526020600020016000915054906101000a900473ffffffffffffffffffffffffffffffffffffffff1681565b8280548282559060005260206000209081019282156107ac579160200282015b828111156107ab5782518260006101000a81548173ffffffffffffffffffffffffffffffffffffffff021916908373ffffffffffffffffffffffffffffffffffffffff16021790555091602001919060010190610753565b5b5090506107b991906107bd565b5090565b5b808211156107d65760008160009055506001016107be565b5090565b6000819050919050565b6107ed816107da565b82525050565b600060208201905061080860008301846107e4565b92915050565b600080fd5b600073ffffffffffffffffffffffffffffffffffffffff82169050919050565b600061083e82610813565b9050919050565b61084e81610833565b811461085957600080fd5b50565b60008135905061086b81610845565b92915050565b6000602082840312156108875761088661080e565b5b60006108958482850161085c565b91505092915050565b60008115159050919050565b6108b38161089e565b82525050565b60006020820190506108ce60008301846108aa565b92915050565b6108dd81610833565b82525050565b60006020820190506108f860008301846108d4565b92915050565b600061090982610813565b9050919050565b610919816108fe565b82525050565b60006020820190506109346000830184610910565b92915050565b610943816107da565b811461094e57600080fd5b50565b6000813590506109608161093a565b92915050565b60006020828403121561097c5761097b61080e565b5b600061098a84828501610951565b91505092915050565b7f4e487b7100000000000000000000000000000000000000000000000000000000600052601260045260246000fd5b60006109cd826107da565b91506109d8836107da565b9250826109e8576109e7610993565b5b828206905092915050565b7f4e487b7100000000000000000000000000000000000000000000000000000000600052603260045260246000fd5b7f4e487b7100000000000000000000000000000000000000000000000000000000600052604160045260246000fd5b6000819050919050565b610a6c610a67826107da565b610a51565b82525050565b6000610a7e8286610a5b565b602082019150610a8e8285610a5b565b602082019150610a9e8284610a5b565b602082019150819050949350505050565b6000604082019050610ac460008301856108d4565b610ad160208301846107e4565b9392505050565b610ae18161089e565b8114610aec57600080fd5b50565b600081519050610afe81610ad8565b92915050565b600060208284031215610b1a57610b1961080e565b5b6000610b2884828501610aef565b91505092915050565b600082825260208201905092915050565b7f596f7520616c726561647920686176652061207469636b657400000000000000600082015250565b6000610b78601983610b31565b9150610b8382610b42565b602082019050919050565b60006020820190508181036000830152610ba781610b6b565b905091905056fea2646970667358221220277b0a72ec586efae9b74a05bd85c8a1a9c87722bbb95d47bcd16a516cdad43d64736f6c63430008120033",
  "devdoc": {
    "kind": "dev",
    "methods": {},
    "version": 1
  },
  "userdoc": {
    "errors": {
      "IsGated__InvalidGatewayToken(address)": [
        {
          "notice": "The gateway token is not valid."
        }
      ]
    },
    "kind": "user",
    "methods": {},
    "version": 1
  },
  "storageLayout": {
    "storage": [
      {
        "astId": 5,
        "contract": "contracts/Lottery.sol:Lottery",
        "label": "_gatewayTokenContract",
        "offset": 0,
        "slot": "0",
        "type": "t_address"
      },
      {
        "astId": 7,
        "contract": "contracts/Lottery.sol:Lottery",
        "label": "_gatekeeperNetwork",
        "offset": 0,
        "slot": "1",
        "type": "t_uint256"
      },
      {
        "astId": 82,
        "contract": "contracts/Lottery.sol:Lottery",
        "label": "players",
        "offset": 0,
        "slot": "2",
        "type": "t_array(t_address_payable)dyn_storage"
      },
      {
        "astId": 86,
        "contract": "contracts/Lottery.sol:Lottery",
        "label": "uniquePlayers",
        "offset": 0,
        "slot": "3",
        "type": "t_mapping(t_address,t_bool)"
      },
      {
        "astId": 88,
        "contract": "contracts/Lottery.sol:Lottery",
        "label": "manager",
        "offset": 0,
        "slot": "4",
        "type": "t_address"
      },
      {
        "astId": 90,
        "contract": "contracts/Lottery.sol:Lottery",
        "label": "winner",
        "offset": 0,
        "slot": "5",
        "type": "t_address_payable"
      }
    ],
    "types": {
      "t_address": {
        "encoding": "inplace",
        "label": "address",
        "numberOfBytes": "20"
      },
      "t_address_payable": {
        "encoding": "inplace",
        "label": "address payable",
        "numberOfBytes": "20"
      },
      "t_array(t_address_payable)dyn_storage": {
        "base": "t_address_payable",
        "encoding": "dynamic_array",
        "label": "address payable[]",
        "numberOfBytes": "32"
      },
      "t_bool": {
        "encoding": "inplace",
        "label": "bool",
        "numberOfBytes": "1"
      },
      "t_mapping(t_address,t_bool)": {
        "encoding": "mapping",
        "key": "t_address",
        "label": "mapping(address => bool)",
        "numberOfBytes": "32",
        "value": "t_bool"
      },
      "t_uint256": {
        "encoding": "inplace",
        "label": "uint256",
        "numberOfBytes": "32"
      }
    }
  }
}